:020000040800F2
:100000001014002011500008BD020008BF020008B3
:10001000C1020008C3020008C50200080000000079
:10002000000000000000000000000000C7020008FF
:10003000C902000800000000CB020008CD02000841
:100040002B5000082B5000082B5000082B500008A4
:100050002B5000082B5000082B5000082B50000894
:100060002B5000082B5000082B5000082B50000884
:100070002B5000082B5000082B5000082B50000874
:100080002B5000082B5000082B5000082B50000864
:100090002B5000082B5000082B5000082B50000854
:1000A0002B5000082B5000082B5000082B50000844
:1000B000D50100080D0200082B5000082B50000845
:1000C0002B5000082B5000082B5000082B50000824
:1000D0002B500008A54F00082B5000082B5000089B
:1000E0002B5000082B5000082B5000082B50000804
:1000F0002B5000082B5000082B5000082B500008F4
:100100002B5000082B5000082B5000082B500008E3
:100110002B5000082B5000082B5000082B500008D3
:100120002B5000082B5000082B5000082B500008C3
:1001300000F002F800F03FF80AA090E8000C8244BA
:100140008344AAF10107DA4501D100F034F8AFF297
:10015000090EBAE80F0013F0010F18BFFB1A43F0A5
:1001600001031847007C0000207C0000103A24BFE7
:1001700078C878C1FAD8520724BF30C830C144BF0C
:1001800004680C607047000000230024002500264E
:10019000103A28BF78C1FBD8520728BF30C148BFEA
:1001A0000B607047782906F0AF87002070471FB5B5
:1001B0001FBD10B510BD07F05FF81146FFF7F7FF40
:1001C00000F033F807F07DF803B4FFF7F2FF03BC4B
:1001D00004F092FE10B501218C07204606F08AFC3F
:1001E000002812D00121204606F090FC30494888B2
:1001F000401C80B248802F4A1268904205D30020EC
:100200004880BDE8104004F05FBD10BD10B52A4C19
:100210000121204606F06EFC002805D02046BDE8EE
:100220001040012106F072BC10BD04F019FE4FF41D
:10023000A06004F00DFF4FF4E13004F067FE00F021
:1002400001F904F0FEFD00F025F900F018FE04F0BD
:1002500097FC41F61F4140F2F31004F093FB41F686
:100260003F11012004F0BCFB114C0025002000F0E0
:100270002BF9207020780028F8D02078012811D0A0
:1002800002280BD0032805D004280ED1032004F047
:10029000DCFB0AE0042004F0D8FB06E0012004F0B7
:1002A000D4FB02E0022004F0D0FB2570DEE7000062
:1002B0000000002030000020000400407047FEE7EE
:1002C000FEE7FEE7FEE770477047704770470000A3
:1002D0000CB50022019200925248016841F480312D
:1002E00001604FF4A063016801F4003100910199AD
:1002F000491C0191009911B901999942F3D1016802
:10030000890302D50121009100E0009200990129A2
:1003100030D145490A6842F010020A600A6822F0AA
:1003200003020A600A6842F002020A604168416002
:1003300041684160416841F480614160416821F455
:100340007C114160416841F4E8114160016841F06D
:100350008071016001688901FCD5416821F00301C9
:100360004160416841F0020141604168C1F381018F
:100370000229FAD10CBDABE710B52A48016841F05B
:10038000010101604168294A114041600168284A21
:1003900011400160016821F480210160416821F46D
:1003A000FE0141604FF41F018160FFF7E4FF214926
:1003B0004FF00060086010BD10B51A4A506800F098
:1003C0000C011D4B1D4800290ED004290ED0082910
:1003D0000ED003605168194AC1F30311121D515C1C
:1003E0000268CA40026010BD0360F3E70360F1E7F2
:1003F000516801F47011536803F48033022404EB54
:10040000914133B153689B0307D50D4B59430160AC
:10041000E0E70B4B59430160DCE7074B59430160B0
:10042000D8E7000000100240002002400000FFF862
:10043000FFFFF6FE08ED00E000127A000400002045
:1004400000093D0038B50121482005F028FB202493
:10045000ADF8004010208DF8030003208DF8020055
:100460000A4D6946284605F014F92021284605F072
:100470007FF9ADF80040064C6946204605F009F9C1
:100480002021204605F074F938BD0000000C014021
:100490000018014008B50121442005F000FB1C2094
:1004A000ADF8000048208DF803006946364805F095
:1004B000F0F80120ADF8000028208DF8030069460F
:1004C000324805F0E6F808BD2DE9F0410125304C31
:1004D000002800D0257020782C4F2B4EA0B1102181
:1004E000304605F031F9B0B10821304605F02CF95D
:1004F00088B10421304605F027F960B10121384662
:1005000005F022F9012806D01021304605F01CF92B
:10051000012824D035E0012004F0D0FC0020207018
:100520001021304605F010F980B10821304605F061
:100530000BF970B10421304605F006F958B10121DC
:10054000384605F001F9012807D01AE00120BDE87E
:10055000F0810220FBE70320F9E70420F7E70821F8
:10056000304605F0F1F801280BD10421304605F0A2
:10057000EBF8012805D10121384605F0E5F800B96E
:1005800025700020E3E7000000180140000801404A
:1005900018000020FB4908807047FA49891C088030
:1005A0007047F848801C00887047F64A1080901CFD
:1005B0000180704710B5FFF7EDFF052004F067FCE0
:1005C000BDE81040EDE7F048EE490089088070472B
:1005D000EC49891C08807047C0F34511C20AC0026B
:1005E00000EB4110104480B27047401EC0B2FCD2F4
:1005F00070472DE9F04102460B46E34E1F0A304694
:10060000B1884089A1F513444FEA1228413C15D026
:10061000A1F5A644103C11D03446A1F5D04CA579E3
:100620002488A41A641EBCF1040C19D0A1F5A04CB6
:10063000BCF5A26C29D0012D43D043E0FFF7AAFFFF
:100640004046FFF7AAFFD0B2FFF7A7FFB089FFF738
:10065000A1FF3846FFF7A1FFBDE8F041D8B29CE703
:10066000012D00D1A2B2FFF795FF100AFFF795FF09
:10067000D0B2FFF792FFB089FFF78CFF3846FFF743
:100680008CFFBDE8F041D8B287E7FFF783FF404613
:10069000FFF783FF7089401C80B2FFF77BFFD0B269
:1006A000FFF77BFFB089FFF775FF3846FFF775FF4F
:1006B000B089401C80B2FFF76DFFBDE8F041D8B2B1
:1006C0006BE7A2B21146FFF770FFB089BDE8F041B9
:1006D00019466AE72DE9F04700250024AA4F3A8819
:1006E000824202D97A888A4202D80020BDE8F08787
:1006F000FFF77FFFB88849F2413846F6040A45F211
:10070000103345F21056404503D0504501D0984271
:1007100003D12E20FFF73EFF09E0B04204D14FF491
:100720003850FFF737FF02E02220FFF733FFB88889
:10073000A0F51341203902D10220FFF756FFDFF860
:10074000449209F102090220FFF74FFFB9F8002097
:10075000B888404503D0984201D0B04209D1022068
:10076000FFF743FFB9F80040D0B24FF6FF7101EA3E
:100770000025B988A1F5134025381BD0A1F58A4082
:10078000353817D0001D15D0A1F50940893811D092
:10079000A1F5354005380DD0414503D0994201D02F
:1007A000B14209D1D00AC002A90A40EA411040EA88
:1007B000D4209BE7104699E7BDE8F04710460BE7C9
:1007C00071488088A0F5134141390ED0A0F5D04181
:1007D00004390AD0A0F5A641103906D0B1F5007150
:1007E00005D040F273110720DFE62920D2E64FF44E
:1007F0002450CFE664488088A0F5134141390DD0DC
:10080000A0F5D041043909D0A0F5A641103905D092
:10081000B1F5007104D000210720C6E62820B9E612
:100820004FF42050B6E6F0B50023574C46F60402CC
:100830002146A5798988012D18D1914216D0082822
:1008400014D2DFE800F00406080A0C0E101206208D
:100850000CE007200AE0042008E0052006E0012063
:1008600004E0002002E0032000E00220A1F513478D
:1008700045F2103645F21055413F05D0914203D064
:10088000B14201D0A9427CD1082812D2DFE800F0A1
:10089000110406080A0C0E1080230AE0402308E029
:1008A000C02306E0202304E0602302E0A02300E050
:1008B000E023A94202D14FF4585000E03620B14263
:1008C00003D0A94201D043F00803914201D143F083
:1008D00002031946FFF769FE980657D4A07901284C
:1008E00054D020886188884201D921806080A08806
:1008F000A84252D16089FFF74DFE0020FFF74DFE60
:100900006089401C80B2FFF745FE0020FFF745FEDE
:100910006089801C80B2FFF73DFE2088401EC0F336
:100920000F20FFF73AFE6089C01C80B2FFF732FE4D
:100930002078401EC0B2FFF730FEA089FFF72AFEE4
:100940000020FFF72AFEA089401C80B2FFF722FE9C
:100950000020FFF722FEA089801C80B2FFF71AFE5C
:100960006088401EC0F30F20FFF717FEA089C01C4F
:1009700080B2FFF70FFEA078BDE8F040401EC0B285
:100980000BE633E0FE07006C5400002020886188ED
:100990008842ACD221806080A9E76089FFF7FAFD28
:1009A0000020FFF7FAFD0020FFF7F7FD2088401E2A
:1009B000C0F30F20FFF7F1FD2078401EC0B2FFF713
:1009C000ECFDA089FFF7E6FD0020FFF7E6FD002023
:1009D000FFF7E3FD6088401EC0F30F20FFF7DDFD49
:1009E000A078BDE8F040401EC0B2D6E5082812D27B
:1009F000DFE800F0040608110A0C0E1030230AE0AC
:100A0000102308E0202306E0382304E0282302E036
:100A1000182300E00823A1F50940893805D00320F8
:100A200043F48051BDE8F040BFE5112046F240029A
:100A300043EA0201F6E700B5FFF7DBFDFFF7C3FD70
:100A4000FE48FF490088088000BD2DE9F0410346BB
:100A50000C469046FB4F220A3846B9881D0A408949
:100A6000A1F51346413E13D0A1F5A646103E0FD086
:100A7000B6F500761ED03D46A1F5D04CAE792D8856
:100A8000ED1A6D1EBCF1040C30D0012E43D043E0B2
:100A9000FFF780FD2846FFF780FDD8B2FFF77DFD08
:100AA000B889FFF777FD1046FFF777FDE0B2FFF753
:100AB00074FD38E0FFF76EFD2846FFF76EFD78897C
:100AC000401C80B2FFF766FDD8B2FFF766FDB8891B
:100AD000FFF760FD1046FFF760FDB889401C80B24B
:100AE000FFF758FDE0B2FFF758FD1CE0012E00D1E2
:100AF000ABB2FFF74FFD180AFFF74FFDD8B2FFF773
:100B00004CFDB889FFF746FD1046FFF746FDE0B201
:100B1000FFF743FD07E0ABB21946FFF746FDB88982
:100B20002146FFF742FDC6493889891E0880881C86
:100B3000A0F80080BDE8F0812DE9F04FC1492C23D9
:100B40002A242B2522224E27898848F689164FF021
:100B50004F0C45F210584FF42C5E4FF0F00949F25B
:100B6000413A002821D0B7484FF0010B80F806B079
:100B70004FF4A07BA0F800B0A0F80290514510D02F
:100B8000A1F5A049B9F544790BD0A1F5D049B9F147
:100B9000040950D0B14252D10281A0F80AC0878125
:100BA00063E00381448185815FE0A6484FF0000B3C
:100BB00080F806B0A0F800904FF4A079A0F8029059
:100BC000514510D0A1F5D04ABAF1040A0BD0A1F5D5
:100BD000A04ABAF5447A06D0B14215D102814781C4
:100BE000A0F80CC04EE0038144818581A1F5D0427C
:100BF000043A03D0A1F5A642103A43D1A0F80090E0
:100C00004FF4F07141803DE041450ED14FF4305139
:100C100001814FF428514181A0F80CE04FF4F071AC
:100C200001804FF4487141802CE0028120214181F4
:100C30002121818126E003814581848115E04145A0
:100C40000ED14FF4305202814FF428524281A0F865
:100C50000CE04FF4487202804FF4F072428004E0DE
:100C600002812122428120228281A1F5D042043AD0
:100C700003D0A1F5A642103A04D14FF4F0710180DF
:100C8000A0F802B0BDE8F04F0020CCE52DE9F04718
:100C900006460D46B018401E84B2E818401E82B2C7
:100CA000684F2B0A3946B8884989A0F5134C4FEA9A
:100CB0001628BCF1410C33D0A0F5A04CBCF5447C07
:100CC0002ED0A0F5D04CBCF1040C29D0A0F5A04C3E
:100CD000BCF5A26C43D0B97901297DD031462346B9
:100CE0002C461746A0F50942893A79D050204FF09A
:100CF00051084FF052094FF0530AFFF756FC1946BE
:100D00004046FFF752FC21464846FFF74EFC394665
:100D10005046FFF74AFC29463046BDE8F04768E4F4
:100D20000846FFF737FC4046FFF737FCF0B2FFF705
:100D300034FC200AFFF731FCE0B2FFF72EFCB88943
:100D4000FFF728FC1846FFF728FCE8B2FFF725FC60
:100D5000100AFFF722FCBDE8F047D0B21DE40846B8
:100D6000FFF718FC4046FFF718FC7889401C80B25A
:100D7000FFF710FCF0B2FFF710FC7889801C80B2FE
:100D8000FFF708FC200AFFF708FC7889C01C80B236
:100D9000FFF700FCE0B2FFF700FCB889FFF7FAFBB1
:100DA0001846FFF7FAFBB889401C80B2FFF7F2FB48
:100DB000E8B2FFF7F2FBB889801C80B2FFF7EAFBCC
:100DC000100AFFF7EAFBB889C01C80B2FFF7E2FB0C
:100DD000BDE8F047D0B201E00DE001E0FFF7DDBB78
:100DE0004420804641EA032189B20B464FF0450971
:100DF0004FF0460A81E7294613463A88141B641EC1
:100E0000A4B2921B521E97B26CE72DE9F04306463E
:100E100000240C4F38887D884543B888A0F5D04120
:100E2000043902D1B87901280ED000210846FFF715
:100E3000E0FBFFF7C8FB02491DE000001A0000209C
:100E40000008006C540000200020B8714FF02A09FF
:100E5000A7F80A904FF02B08A7F80C80002108464D
:100E6000FFF7C7FB0120B871A7F80A80A7F80C901C
:100E7000DFE70E80641CAC42FBD3BDE8F0832DE9B4
:100E8000F04F9FB001210C02204604F0FDFD01212E
:100E900040F2691004F003FE4FF00108ADF87880CD
:100EA00010278DF87B7003258DF87A501EA9FD4818
:100EB00004F0EFFB4CF23370ADF8780018268DF893
:100EC0007B608DF87A501EA9F74804F0E2FB4FF6DC
:100ED0008070ADF878008DF87B608DF87A501EA98F
:100EE000F24804F0D6FB41F20100ADF878008DF82D
:100EF0007B608DF87A501EA9ED4804F0CAFBCDF84E
:100F00002080002009900F210A910B900C900D90E9
:100F10000E90019002900395049005900690079022
:100F200006210F9110901190129713901590149024
:100F30001690179021011891199089001A911B9011
:100F400008A81C9001A81D900FA804F014F9012115
:100F5000062004F044FA322003F0B0FF0121002003
:100F6000FFF723FB322003F0A9FF0020FFF722FB4D
:100F7000DFF840A3AAF8040049F2413546F604061A
:100F800045F210384FF6FF7745F21059FF2804D389
:100F9000B84202D0B0F5134F63D1D320FFF7FAFA6D
:100FA000FFF7FFFAFFF7FDFAFFF7FBFA07EA002069
:100FB000AAF80400FFF7F5FABAF804100843AAF8F3
:100FC0000400A8424DD0BF20FFF7E4FAFFF7E9FA8A
:100FD000FFF7E7FAFFF7E5FAFFF7E3FA07EA002081
:100FE000AAF80400FFF7DDFABAF804100843AAF8DB
:100FF0000400B04235D0D420FFF7CCFAFFF7D1FA85
:10100000FFF7CFFAFFF7CDFA07EA0020AAF80400AD
:10101000FFF7C7FABAF804100843AAF804004045DD
:101020001FD04FF45A40FFF7B5FAFFF7BAFA4FF462
:101030005B40FFF7AFFAFFF7B4FA07EA0020AAF81F
:1010400004004FF45C40FFF7A5FAFFF7AAFABAF8DC
:1010500004100843AAF80400B0F5004F01D1AAF823
:101060000490BAF8041094A006F00EF8BAF8040040
:10107000A8427CD1CF20FFF78DFA0020FFF78DFA30
:10108000C120FFF78AFA3020FFF787FAED20FFF73B
:1010900081FA6420FFF781FA0320FFF77EFA12201D
:1010A000FFF77BFA8120FFF778FAE820FFF772FA62
:1010B0008520FFF772FA1020FFF76FFA7A20FFF70A
:1010C0006CFACB20FFF766FA3920FFF766FA2C207E
:1010D000FFF763FA0020FFF760FA3420FFF75DFAAC
:1010E0000220FFF75AFAF720FFF754FA2020FFF703
:1010F00054FAEA20FFF74EFA0020FFF74EFA0020DC
:10110000FFF74BFAC020FFF745FA1B20FFF745FA1F
:10111000C120FFF73FFA0120FFF73FFAC520FFF794
:1011200039FA3020FFF739FA3020FFF736FAC720B6
:10113000FFF730FAB720FFF730FA3620FFF72AFA28
:101140004820FFF72AFA3A20FFF724FA5520FFF744
:1011500024FAB120FFF71EFA0020FFF71EFA1A202A
:10116000FFF71BFAB620FFF715FA0A2000E0ABE004
:10117000FFF713FAA220FFF710FAF220FFF70AFA9E
:101180000020FFF70AFA2620FFF704FA0120FFF7F4
:1011900004FAE020FFF7FEF90F20FFF7FEF92A20FE
:1011A000FFF7FBF92820FFF7F8F90820FFF7F5F91A
:1011B0000E20FFF7F2F90820FFF7EFF95420FFF7B0
:1011C000ECF9A920FFF7E9F94320FFF7E6F90A2037
:1011D000FFF7E3F90F20FFF7E0F90020FFF7DDF953
:1011E0000020FFF7DAF90020FFF7D7F90020FFF71A
:1011F000D4F9E120FFF7CEF90020FFF7CEF9152052
:10120000FFF7CBF91720FFF7C8F90720FFF7C5F95B
:101210001120FFF7C2F90620FFF7BFF92B20FFF7D7
:10122000BCF95620FFF7B9F93C20FFF7B6F90520C5
:10123000FFF7B3F91020FFF7B0F90F20FFF7ADF972
:101240003F20FFF7AAF93F20FFF7A7F90F20FFF78C
:10125000A4F92B20FFF79EF90020FFF79EF900204C
:10126000FFF79BF90120FFF798F93F20FFF795F969
:101270002A20FFF78FF90020FFF78FF90020FFF7F2
:101280008CF90020FFF789F9EF20FFF786F911208C
:10129000FFF780F9782003F011FE2920FFF77AF993
:1012A00003F0C4B8000C01400014014000180140D4
:1012B0000020014054000020204C43442049443A7F
:1012C00025780D0A00000000B0427CD11120FFF704
:1012D00061F9142003F0F2FDD020FFF75BF907203D
:1012E000FFF75BF94220FFF758F91D20FFF755F98A
:1012F000D120FFF74FF90020FFF74FF91A20FFF731
:101300004CF90920FFF749F9D220FFF743F90120F2
:10131000FFF743F92220FFF740F9C020FFF73AF921
:101320001020FFF73AF93B20FFF737F90020FFF7CD
:1013300034F90220FFF731F91120FFF72EF9C5200B
:10134000FFF728F90320FFF728F9C820FFF722F953
:101350000020FFF722F92520FFF71FF92120FFF7D2
:101360001CF90520FFF719F90020FFF716F90A20EC
:10137000FFF713F96520FFF710F92520FFF70DF9A6
:101380007720FFF70AF95020FFF707F90F20FFF742
:1013900004F90020FFF701F9F820FFF7FBF801201E
:1013A000FFF7FBF8FE20FFF7F5F80020FFF7F5F850
:1013B0000220FFF7F2F82020FFF7ECF83620FFF7C5
:1013C000E9F8082000E02CE0FFF7E7F83A20FFF703
:1013D000E1F85520FFF7E1F82B20FFF7DBF80020BC
:1013E000FFF7DBF80020FFF7D8F80120FFF7D5F86A
:1013F0003F20FFF7D2F82A20FFF7CCF80020FFF7B4
:10140000CCF80020FFF7C9F80120FFF7C6F8DF206D
:10141000FFF7C3F8782003F051FD2920FFF7BAF851
:101420003EE740457ED1ED20FFF7B4F80120FFF7FD
:10143000B4F8FE20FFF7B1F8EE20FFF7ABF8DE209E
:10144000FFF7ABF82120FFF7A8F8F120FFF7A2F88B
:101450000120FFF7A2F8DF20FFF79CF81020FFF72C
:101460009CF8C420FFF796F88F20FFF796F8C62067
:10147000FFF790F80020FFF790F8E220FFF78DF8D3
:10148000E220FFF78AF8E220FFF787F8BF20FFF796
:1014900081F8AA20FFF781F8B020FFF77BF80D2034
:1014A000FFF77BF80020FFF778F80D20FFF775F8BD
:1014B0000020FFF772F81120FFF76FF80020FFF708
:1014C0006CF81920FFF769F80020FFF766F8212073
:1014D000FFF763F80020FFF760F82D20FFF75DF8B5
:1014E0000020FFF75AF83D20FFF757F80020FFF7DC
:1014F00054F85D20FFF751F80020FFF74EF85D200B
:10150000FFF74BF80020FFF748F8B120FFF742F84B
:101510008020FFF742F80020FFF73FF88B20FFF70D
:101520003CF800E0FDE30020FFF737F89620FFF7D6
:1015300034F80020FFF731F8B220FFF72BF8002035
:10154000FFF72BF80020FFF728F80220FFF725F817
:101550000020FFF722F80320FFF71FF80020FFF715
:101560001CF8B320FFF716F80020FFF716F800204C
:10157000FFF713F80020FFF710F80020FFF70DF831
:101580000020FFF70AF80020FFF707F80020FFF718
:1015900004F80020FFF701F80020FEF7FEFF00200E
:1015A000FEF7FBFF0020FEF7F8FF0020FEF7F5FF37
:1015B0000020FEF7F2FF0020FEF7EFFF0020FEF70D
:1015C000ECFF0020FEF7E9FF0020FEF7E6FF002019
:1015D000FEF7E3FF0020FEF7E0FF0020FEF7DDFF4F
:1015E0000020FEF7DAFF0020FEF7D7FF0020FEF70D
:1015F000D4FF0020FEF7D1FFB420FEF7CBFF8B20F5
:10160000FEF7CBFF0020FEF7C8FF9620FEF7C5FFD0
:101610000020FEF7C2FFA120FEF7BFFF0020FEF76B
:10162000BCFFB520FEF7B6FF0220FEF7B6FF002094
:10163000FEF7B3FF0320FEF7B0FF0020FEF7ADFF7B
:101640000420FEF7AAFF0020FEF7A7FFB620FEF752
:10165000A1FF0020FEF7A1FF0020FEF79EFFB720AC
:10166000FEF798FF0020FEF798FF0020FEF795FF99
:101670003F20FEF792FF0020FEF78FFF5E20FEF76F
:101680008CFF0020FEF789FF6420FEF786FF002014
:10169000FEF783FF8C20FEF780FF0020FEF77DFF22
:1016A000AC20FEF77AFF0020FEF777FFDC20FEF784
:1016B00074FF0020FEF771FF7020FEF76EFF002020
:1016C000FEF76BFF9020FEF768FF0020FEF765FF36
:1016D000EB20FEF762FF0020FEF75FFFDC20FEF745
:1016E0005CFF0020FEF759FFB820FEF753FF0020F3
:1016F000FEF753FF0020FEF750FF0020FEF74DFFDE
:101700000020FEF74AFF0020FEF747FF0020FEF70B
:1017100044FF0020FEF741FF0020FEF73EFFBA2005
:10172000FEF738FF2420FEF738FF0020FEF735FFD4
:101730000020FEF732FF0020FEF72FFFC120FEF74A
:1017400029FF2020FEF729FF0020FEF726FF542066
:10175000FEF723FF0020FEF720FFFF20FEF71DFF0E
:101760000020FEF71AFFC220FEF714FF0A20FEF742
:1017700014FF0020FEF711FF0420FEF70EFF0020EB
:10178000FEF70BFFC320FEF705FF3C20FEF705FF29
:101790000020FEF702FF3A20FEF7FFFE0020FEF7D2
:1017A000FCFE3920FEF7F9FE0020FEF7F6FE37209A
:1017B000FEF7F3FE0020FEF7F0FE3C20FEF7EDFE04
:1017C0000020FEF7EAFE3620FEF7E7FE0020FEF7D7
:1017D000E4FE3220FEF7E1FE0020FEF7DEFE2F20C1
:1017E000FEF7DBFE0020FEF7D8FE2C20FEF7D5FE2C
:1017F0000020FEF7D2FE2920FEF7CFFE0020FEF7E4
:10180000CCFE2620FEF7C9FE0020FEF7C6FE2420EF
:10181000FEF7C3FE0020FEF7C0FE2420FEF7BDFE4B
:101820000020FEF7BAFE2320FEF7B7FE0020FEF7E9
:10183000B4FE3C20FEF7B1FE0020FEF7AEFE3620DF
:10184000FEF7ABFE0020FEF7A8FE3220FEF7A5FE55
:101850000020FEF7A2FE2F20FEF79FFE0020FEF7DD
:101860009CFE2C20FEF799FE0020FEF796FE292014
:10187000FEF793FE0020FEF790FE2620FEF78DFE79
:101880000020FEF78AFE2420FEF787FE0020FEF7E8
:1018900084FE2420FEF781FE0020FEF77EFE23203A
:1018A000FEF77BFE0020FEF778FEC420FEF772FEF6
:1018B0006220FEF772FE0020FEF76FFE0520FEF7A5
:1018C0006CFE0020FEF769FE8420FEF766FE002015
:1018D000FEF763FEF020FEF760FE0020FEF75DFEDF
:1018E0001820FEF75AFE0020FEF757FEA420FEF750
:1018F00054FE0020FEF751FE1820FEF74EFE002099
:10190000FEF74BFE5020FEF748FE0020FEF745FE96
:101910000C20FEF742FE0020FEF73FFE1720FEF7E8
:101920003CFE0020FEF739FE9520FEF736FE002033
:10193000FEF733FEF320FEF730FE0020FEF72DFE0B
:10194000E620FEF72AFE0020FEF727FEC520FEF760
:1019500021FE3220FEF721FE0020FEF71EFE44206D
:10196000FEF71BFE0020FEF718FE6520FEF715FEB1
:101970000020FEF712FE7620FEF70FFE0020FEF795
:101980000CFE8820FEF709FE0020FEF706FEC620AA
:10199000FEF700FE2020FEF700FE0020FEF7FDFD12
:1019A0001720FEF7FAFD0020FEF7F7FD0120FEF7F5
:1019B000F4FD0020FEF7F1FDC720FEF7EBFD00204F
:1019C000FEF7EBFD0020FEF7E8FD0020FEF7E5FD49
:1019D0000020FEF7E2FDC820FEF7DCFD0020FEF748
:1019E000DCFD0020FEF7D9FD0020FEF7D6FD00202B
:1019F000FEF7D3FDC920FEF7CDFD0020FEF7CDFD9B
:101A00000020FEF7CAFD0020FEF7C7FD0020FEF70C
:101A1000C4FD0020FEF7C1FD0020FEF7BEFD002042
:101A2000FEF7BBFD0020FEF7B8FD0020FEF7B5FD78
:101A30000020FEF7B2FD0020FEF7AFFD0020FEF70C
:101A4000ACFD0020FEF7A9FD0020FEF7A6FD00205A
:101A5000FEF7A3FD0020FEF7A0FDE020FEF79AFDB3
:101A60001620FEF79AFD0020FEF797FD1C20FEF7DA
:101A700094FD0020FEF791FD2120FEF78EFD002051
:101A8000FEF78BFD3620FEF788FD0020FEF785FD72
:101A90004620FEF782FD0020FEF77FFD5220FEF774
:101AA0007CFD0020FEF779FD6420FEF776FD002026
:101AB000FEF773FD7A20FEF770FD0020FEF76DFD46
:101AC0008B20FEF76AFD0020FEF767FD9920FEF7E8
:101AD00064FD0020FEF761FDA820FEF75EFD0020FA
:101AE000FEF75BFDB920FEF758FD0020FEF755FD1F
:101AF000C420FEF752FD0020FEF74FFDCA20FEF77E
:101B00004CFD0020FEF749FDD220FEF746FD0020E7
:101B1000FEF743FDD920FEF740FD0020FEF73DFD16
:101B2000E020FEF73AFD0020FEF737FDF320FEF738
:101B300034FD0020FEF731FDE120FEF72BFD1620DD
:101B4000FEF72BFD0020FEF728FD1C20FEF725FDEB
:101B50000020FEF722FD2220FEF71FFD0020FEF7E9
:101B60001CFD3620FEF719FD0020FEF716FD45206E
:101B7000FEF713FD0020FEF710FD5220FEF70DFDCD
:101B80000020FEF70AFD6420FEF707FD0020FEF7A7
:101B900004FD7A20FEF701FD0020FEF7FEFC8B20FD
:101BA000FEF7FBFC0020FEF7F8FC9920FEF7F5FCA1
:101BB0000020FEF7F2FCA820FEF7EFFC0020FEF765
:101BC000ECFCB920FEF7E9FC0020FEF7E6FCC4209F
:101BD000FEF7E3FC0020FEF7E0FCCA20FEF7DDFC88
:101BE0000020FEF7DAFCD220FEF7D7FC0020FEF73B
:101BF000D4FCD820FEF7D1FC0020FEF7CEFCE0207C
:101C0000FEF7CBFC0020FEF7C8FCF320FEF7C5FC76
:101C10000020FEF7C2FCE220FEF7BCFC0520FEF728
:101C2000BCFC0020FEF7B9FC0B20FEF7B6FC002040
:101C3000FEF7B3FC1B20FEF7B0FC0020FEF7ADFC66
:101C40003420FEF7AAFC0020FEF7A7FC4420FEF794
:101C5000A4FC0020FEF7A1FC4F20FEF79EFC002014
:101C6000FEF79BFC6120FEF798FC0020FEF795FC38
:101C70007920FEF792FC0020FEF78FFC8820FEF70B
:101C80008CFC0020FEF789FC9720FEF786FC0020E4
:101C9000FEF783FCA620FEF780FC0020FEF77DFC0B
:101CA000B720FEF77AFC0020FEF777FCC220FEF793
:101CB00074FC0020FEF771FCC720FEF76EFC0020CC
:101CC000FEF76BFCD120FEF768FC0020FEF765FCF8
:101CD000D620FEF762FC0020FEF75FFCDD20FEF759
:101CE0005CFC0020FEF759FCF320FEF756FC0020B8
:101CF000FEF753FCE320FEF74DFC0520FEF74DFCFC
:101D00000020FEF74AFC0A20FEF747FC0020FEF701
:101D100044FC1C20FEF741FC0020FEF73EFC332073
:101D200000E0FDE2FEF739FC0020FEF736FC44201F
:101D3000FEF733FC0020FEF730FC5020FEF72DFCB0
:101D40000020FEF72AFC6220FEF727FC0020FEF7A9
:101D500024FC7820FEF721FC0020FEF71EFC8820E2
:101D6000FEF71BFC0020FEF718FC9720FEF715FC81
:101D70000020FEF712FCA620FEF70FFC0020FEF765
:101D80000CFCB720FEF709FC0020FEF706FCC22081
:101D9000FEF703FC0020FEF700FCC720FEF7FDFB6A
:101DA0000020FEF7FAFBD120FEF7F7FB0020FEF73C
:101DB000F4FBD520FEF7F1FB0020FEF7EEFBDD2063
:101DC000FEF7EBFB0020FEF7E8FBF320FEF7E5FB58
:101DD0000020FEF7E2FBE420FEF7DCFB0120FEF72B
:101DE000DCFB0020FEF7D9FB0120FEF7D6FB00202C
:101DF000FEF7D3FB0220FEF7D0FB0020FEF7CDFB61
:101E00002A20FEF7CAFB0020FEF7C7FB3C20FEF7A6
:101E1000C4FB0020FEF7C1FB4B20FEF7BEFB0020F9
:101E2000FEF7BBFB5D20FEF7B8FB0020FEF7B5FB1D
:101E30007420FEF7B2FB0020FEF7AFFB8420FEF714
:101E4000ACFB0020FEF7A9FB9320FEF7A6FB0020C9
:101E5000FEF7A3FBA220FEF7A0FB0020FEF79DFBF0
:101E6000B320FEF79AFB0020FEF797FBBE20FEF79B
:101E700094FB0020FEF791FBC420FEF78EFB0020B0
:101E8000FEF78BFBCD20FEF788FB0020FEF785FBDD
:101E9000D320FEF782FB0020FEF77FFBDD20FEF75C
:101EA0007CFB0020FEF779FBF320FEF776FB002099
:101EB000FEF773FBE520FEF76DFB0020FEF76DFBE0
:101EC0000020FEF76AFB0020FEF767FB0020FEF70C
:101ED00064FB0220FEF761FB0020FEF75EFB292079
:101EE000FEF75BFB0020FEF758FB3C20FEF755FB9E
:101EF0000020FEF752FB4B20FEF74FFB0020FEF7C1
:101F00004CFB5D20FEF749FB0020FEF746FB7420EA
:101F1000FEF743FB0020FEF740FB8420FEF73DFB6D
:101F20000020FEF73AFB9320FEF737FB0020FEF778
:101F300034FBA220FEF731FB0020FEF72EFBB3207E
:101F4000FEF72BFB0020FEF728FBBE20FEF725FB4B
:101F50000020FEF722FBC420FEF71FFB0020FEF747
:101F60001CFBCD20FEF719FB0020FEF716FBD3204B
:101F7000FEF713FB0020FEF710FBDC20FEF70DFB45
:101F80000020FEF70AFBF320FEF707FB0020FEF718
:101F900004FBE620FEF7FEFA1120FEF7FEFA002011
:101FA000FEF7FBFA3420FEF7F8FA0020FEF7F5FA08
:101FB0005620FEF7F2FA0020FEF7EFFA7620FEF741
:101FC000ECFA0020FEF7E9FA7720FEF7E6FA0020A7
:101FD000FEF7E3FA6620FEF7E0FA0020FEF7DDFAEE
:101FE0008820FEF7DAFA0020FEF7D7FA9920FEF7EC
:101FF000D4FA0020FEF7D1FABB20FEF7CEFA00207B
:10200000FEF7CBFA9920FEF7C8FA0020FEF7C5FAD2
:102010006620FEF7C2FA0020FEF7BFFA5520FEF751
:10202000BCFA0020FEF7B9FA5520FEF7B6FA0020F8
:10203000FEF7B3FA4520FEF7B0FA0020FEF7ADFA3E
:102040004320FEF7AAFA0020FEF7A7FA4420FEF785
:10205000A4FA0020FEF7A1FAE720FEF79BFA32204F
:10206000FEF79BFA0020FEF798FA5520FEF795FA46
:102070000020FEF792FA7620FEF78FFA0020FEF796
:102080008CFA6620FEF789FA0020FEF786FA6720B0
:10209000FEF783FA0020FEF780FA6720FEF77DFA4C
:1020A0000020FEF77AFA8720FEF777FA0020FEF785
:1020B00074FA9920FEF771FA0020FEF76EFABB2041
:1020C000FEF76BFA0020FEF768FA9920FEF765FA32
:1020D0000020FEF762FA7720FEF75FFA0020FEF795
:1020E0005CFA4420FEF759FA0020FEF756FA562013
:1020F000FEF753FA0020FEF750FA2320FEF74DFAC0
:102100000020FEF74AFA3320FEF747FA0020FEF7D8
:1021100044FA4520FEF741FA0020FEF73EFAE82097
:10212000FEF738FA0020FEF738FA0020FEF735FAFD
:102130009920FEF732FA0020FEF72FFA8720FEF7EB
:102140002CFA0020FEF729FA8820FEF726FA002054
:10215000FEF723FA7720FEF720FA0020FEF71DFA9B
:102160006620FEF71AFA0020FEF717FA8820FEF71D
:1021700014FA0020FEF711FAAA20FEF70EFA00204A
:10218000FEF70BFABB20FEF708FA0020FEF705FA6F
:102190009920FEF702FA0020FEF7FFF96620FEF70D
:1021A000FCF90020FEF7F9F95520FEF7F6F90020BA
:1021B000FEF7F3F95520FEF7F0F90020FEF7EDF9F0
:1021C0004420FEF7EAF90020FEF7E7F94420FEF785
:1021D000E4F90020FEF7E1F95520FEF7DEF90020D2
:1021E000FEF7DBF9E920FEF7D5F9AA20FEF7D5F9CD
:1021F0000020FEF7D2F90020FEF7CFF90020FEF70D
:10220000CCF90020FEF7C6F9AA20FEF7C6F9CF20C8
:10221000FEF7C0F90020FEF7C0F90020FEF7BDF977
:102220000020FEF7BAF90020FEF7B7F90020FEF70C
:10223000B4F90020FEF7B1F90020FEF7AEF9002056
:10224000FEF7ABF90020FEF7A8F90020FEF7A5F98C
:102250000020FEF7A2F90020FEF79FF90020FEF70C
:102260009CF90020FEF799F90020FEF796F900206E
:10227000FEF793F90020FEF790F9F020FEF78AF9B7
:102280000020FEF78AF95020FEF787F90020FEF7BC
:1022900084F90020FEF781F90020FEF77EF9F32093
:1022A000FEF778F90020FEF778F9F920FEF772F9C9
:1022B0000620FEF772F91020FEF76FF92920FEF7CD
:1022C0006CF90020FEF769F93A20FEF763F9552012
:1022D000FEF763F91120FEF75DF9642002F0EEFDD0
:1022E0002920FEF757F93520FEF754F90020FEF7B4
:1022F00054F95120FEF74EF9FF20FEF74EF9532016
:10230000FEF748F92C20FEF748F95520FEF742F970
:102310008220FEF742F92C20FEF73CF902F086B845
:1023200048457CD14FF4704355211846FEF73DF9DE
:102330004FF20104AA212046FEF737F9651C52210D
:102340002846FEF732F9A61C08213046FEF72DF983
:102350004FF2040801214046FEF727F90D214FF402
:102360003040FEF722F90D214BF20100FEF71DF976
:102370000D214BF20200FEF718F94FF436493421D3
:102380004846FEF712F934214BF20160FEF70DF9D1
:1023900034214BF20260FEF708F94FF4314A0D2167
:1023A0005046FEF702F94BF2011B0D215846FEF78D
:1023B000FCF80D214BF20210FEF7F7F834214FF430
:1023C0003740FEF7F2F834214BF20170FEF7EDF8DA
:1023D00034214BF20270FEF7E8F800214FF432404E
:1023E000FEF7E3F800214BF20120FEF7DEF80021B2
:1023F0004BF20220FEF7D9F824214FF43840FEF7C3
:10240000D4F824214BF60100FEF7CFF824214BF637
:102410000200FEF7CAF801214FF43F4000E0FCE360
:10242000FEF7C3F80F214FF43340FEF7BEF80F213B
:102430004BF20130FEF7B9F80F214BF20230FEF7F4
:10244000B4F834214FF43940FEF7AFF834214BF69D
:102450000110FEF7AAF834214BF60210FEF7A5F89A
:1024600008214FF43540FEF7A0F808214BF2015047
:10247000FEF79BF808214BF20250FEF796F8032175
:102480004FF44240FEF791F824214FF43A40FEF712
:102490008CF824214BF60120FEF787F824214BF617
:1024A0000220FEF782F800214FF43C40FEF77DF851
:1024B00078214BF60140FEF778F800214BF60240F8
:1024C000FEF773F800214FF43D40FEF76EF87821D7
:1024D0004BF60150FEF769F800214BF60250FEF76B
:1024E00064F800214FF43E40FEF75FF864214BF69C
:1024F0000160FEF75AF800214FF45140FEF755F8FD
:1025000033214DF20110FEF750F800214DF2021078
:10251000FEF74BF834214DF20310FEF746F8002188
:102520004DF20410FEF741F83A214DF20510FEF786
:102530003CF800214DF20610FEF737F84A214DF223
:102540000710FEF732F800214DF20810FEF72DF8C3
:102550005C214DF20910FEF728F800214DF20A1017
:10256000FEF723F881214DF20B10FEF71EF8002133
:102570004DF20C10FEF719F8A6214DF20D10FEF7E2
:1025800014F800214DF20E10FEF70FF8E5214DF280
:102590000F10FEF70AF801214DF21010FEF705F8B2
:1025A00013214DF21110FEF700F801214DF2121027
:1025B000FDF7FBFF54214DF21310FDF7F6FF01214B
:1025C0004DF21410FDF7F1FF82214DF21510FDF7C9
:1025D000ECFF01214DF21610FDF7E7FFCA214DF285
:1025E0001710FDF7E2FF02214DF21810FDF7DDFF95
:1025F00000214DF21910FDF7D8FF02214DF21A10FB
:10260000FDF7D3FF01214DF21B10FDF7CEFF022194
:102610004DF21C10FDF7C9FF34214DF21D10FDF7DE
:10262000C4FF02214DF21E10FDF7BFFF67214DF2DE
:102630001F10FDF7BAFF02214DF22010FDF7B5FF84
:1026400084214DF22110FDF7B0FF02214DF222103E
:10265000FDF7ABFFA4214DF22310FDF7A6FF0221E9
:102660004DF22410FDF7A1FFB7214DF22510FDF723
:102670009CFF02214DF22610FDF797FFCF214DF26E
:102680002710FDF792FF02214DF22810FDF78DFF74
:10269000DE214DF22910FDF788FF02214DF22A10AC
:1026A000FDF783FFF2214DF22B10FDF77EFF022193
:1026B0004DF22C10FDF779FFFE214DF22D10FDF7A4
:1026C00074FF03214DF22E10FDF76FFF10214DF224
:1026D0002F10FDF76AFF03214DF23010FDF765FF63
:1026E00033214DF23110FDF760FF03214DF232101E
:1026F000FDF75BFF6D214DF23310FDF756FF002112
:102700004FF45240FDF751FF33214DF20120FDF708
:102710004CFF00214DF20220FDF747FF34214DF21E
:102720000320FDF742FF00214DF20420FDF73DFF9D
:102730003A214DF20520FDF738FF00214DF2062029
:10274000FDF733FF4A214DF20720FDF72EFF002150
:102750004DF20820FDF729FF5C214DF20920FDF71D
:1027600024FF00214DF20A20FDF71FFF81214DF2C9
:102770000B20FDF71AFF00214DF20C20FDF715FF8D
:10278000A6214DF20D20FDF710FF00214DF20E2085
:10279000FDF70BFFE5214DF20F20FDF706FF0121AC
:1027A0004DF21020FDF701FF13214DF21120FDF72E
:1027B000FCFE01214DF21220FDF7F7FE54214DF2EF
:1027C0001320FDF7F2FE01214DF21420FDF7EDFE7E
:1027D00082214DF21520FDF7E8FE01214DF2162071
:1027E000FDF7E3FECA214DF21720FDF7DEFE0221C0
:1027F0004DF21820FDF7D9FE00214DF21920FDF70A
:10280000D4FE02214DF21A20FDF7CFFE01214DF238
:102810001B20FDF7CAFE02214DF21C20FDF7C5FE6C
:1028200034214DF21D20FDF7C0FE02214DF21E2085
:10283000FDF7BBFE67214DF21F20FDF7B6FE02211A
:102840004DF22020FDF7B1FE84214DF22120FDF74D
:10285000ACFE02214DF22220FDF7A7FEA4214DF28D
:102860002320FDF7A2FE02214DF22420FDF79DFE5C
:10287000B7214DF22520FDF798FE02214DF22620CA
:10288000FDF793FECF214DF22720FDF78EFE0221AA
:102890004DF22820FDF789FEDE214DF22920FDF7BB
:1028A00084FE02214DF22A20FDF77FFEF2214DF237
:1028B0002B20FDF77AFE02214DF22C20FDF775FE4C
:1028C000FE214DF22D20FDF770FE03214DF22E204A
:1028D000FDF76BFE10214DF22F20FDF766FE032160
:1028E0004DF23020FDF761FE33214DF23120FDF72E
:1028F0005CFE03214DF23220FDF757FE6D214DF2B3
:102900003320FDF752FE00214FF45340FDF74DFEFA
:1029100033214DF20130FDF748FE00214DF2023027
:10292000FDF743FE34214DF20330FDF73EFE00215A
:102930004DF20430FDF739FE3A214DF20530FDF736
:1029400034FE00214DF20630FDF72FFE4A214DF2F4
:102950000730FDF72AFE00214DF20830FDF725FE75
:102960005C214DF20930FDF720FE00214DF20A30C6
:10297000FDF71BFE81214DF20B30FDF716FE002105
:102980004DF20C30FDF711FEA6214DF20D30FDF792
:102990000CFE00214DF20E30FDF707FEE5214DF251
:1029A0000F30FDF702FE01214DF21030FDF7FDFD65
:1029B00013214DF21130FDF7F8FD01214DF21230D7
:1029C000FDF7F3FD54214DF21330FDF7EEFD01212B
:1029D0004DF21430FDF7E9FD82214DF21530FDF77F
:1029E000E4FD01214DF21630FDF7DFFDCA214DF265
:1029F0001730FDF7DAFD02214DF21830FDF7D5FD55
:102A000000214DF21930FDF7D0FD02214DF21A30B0
:102A1000FDF7CBFD01214DF21B30FDF7C6FD022174
:102A20004DF21C30FDF7C1FD34214DF21D30FDF794
:102A3000BCFD02214DF21E30FDF7B7FD67214DF2BE
:102A40001F30FDF7B2FD02214DF22030FDF7ADFD44
:102A500084214DF22130FDF7A8FD02214DF22230F4
:102A6000FDF7A3FDA4214DF22330FDF79EFD0221C9
:102A70004DF22430FDF799FDB7214DF22530FDF7D9
:102A800094FD02214DF22630FDF78FFDCF214DF24E
:102A90002730FDF78AFD02214DF22830FDF785FD34
:102AA000DE214DF22930FDF780FD02214DF22A3062
:102AB000FDF77BFDF2214DF22B30FDF776FD022173
:102AC0004DF22C30FDF771FDFE214DF22D30FDF75A
:102AD0006CFD03214DF22E30FDF767FD10214DF204
:102AE0002F30FDF762FD03214DF23030FDF75DFD23
:102AF00033214DF23130FDF758FD03214DF23230D4
:102B0000FDF753FD6D214DF23330FDF74EFD0021F1
:102B10004FF45440FDF749FD33214DF20140FDF7DC
:102B200044FD00214DF20240FDF73FFD34214DF2FE
:102B30000340FDF73AFD00214DF20440FDF735FD5D
:102B40003A214DF20540FDF730FD00214DF20640DF
:102B5000FDF72BFD4A214DF20740FDF726FD002130
:102B60004DF20840FDF721FD5C214DF20940FDF7D3
:102B70001CFD00214DF20A40FDF717FD81214DF2A9
:102B80000B40FDF712FD00214DF20C40FDF70DFD4D
:102B9000A6214DF20D40FDF708FD00214DF20E403B
:102BA000FDF703FDE5214DF20F40FDF7FEFC01218D
:102BB0004DF21040FDF7F9FC13214DF21140FDF7E5
:102BC000F4FC01214DF21240FDF7EFFC54214DF2CF
:102BD0001340FDF7EAFC01214DF21440FDF7E5FC3E
:102BE00082214DF21540FDF7E0FC01214DF2164027
:102BF000FDF7DBFCCA214DF21740FDF7D6FC0221A0
:102C00004DF21840FDF7D1FC00214DF21940FDF7BF
:102C1000CCFC02214DF21A4000E003E3FDF7C5FCB5
:102C200001214DF21B40FDF7C0FC02214DF21C407A
:102C3000FDF7BBFC34214DF21D40FDF7B6FC02212F
:102C40004DF21E40FDF7B1FC67214DF21F40FDF72C
:102C5000ACFC02214DF22040FDF7A7FC84214DF28F
:102C60002140FDF7A2FC02214DF22240FDF79DFC20
:102C7000A4214DF22340FDF798FC02214DF224409F
:102C8000FDF793FCB7214DF22540FDF78EFC0221A4
:102C90004DF22640FDF789FCCF214DF22740FDF78C
:102CA00084FC02214DF22840FDF77FFCDE214DF22D
:102CB0002940FDF77AFC02214DF22A40FDF775FC10
:102CC000F2214DF22B40FDF770FC02214DF22C4019
:102CD000FDF76BFCFE214DF22D40FDF766FC032154
:102CE0004DF22E40FDF761FC10214DF22F40FDF713
:102CF0005CFC03214DF23040FDF757FC33214DF2CF
:102D00003140FDF752FC03214DF23240FDF74DFCFE
:102D10006D214DF23340FDF748FC00214FF4554042
:102D2000FDF743FC33214DF20150FDF73EFC00213D
:102D30004DF20250FDF739FC34214DF20350FDF7FE
:102D400034FC00214DF20450FDF72FFC3A214DF2E6
:102D50000550FDF72AFC00214DF20650FDF725FC39
:102D60004A214DF20750FDF720FC00214DF208509A
:102D7000FDF71BFC5C214DF20950FDF716FC00210C
:102D80004DF20A50FDF711FC81214DF20B50FDF779
:102D90000CFC00214DF20C50FDF707FCA6214DF272
:102DA0000D50FDF702FC00214DF20E50FDF7FDFB2A
:102DB000E5214DF20F50FDF7F8FB01214DF21050C7
:102DC000FDF7F3FB13214DF21150FDF7EEFB01214E
:102DD0004DF21250FDF7E9FB54214DF21350FDF76F
:102DE000E4FB01214DF21450FDF7DFFB82214DF28F
:102DF0001550FDF7DAFB01214DF21650FDF7D5FB1A
:102E0000CA214DF21750FDF7D0FB02214DF21850A8
:102E1000FDF7CBFB00214DF21950FDF7C6FB022157
:102E20004DF21A50FDF7C1FB01214DF21B50FDF789
:102E3000BCFB02214DF21C50FDF7B7FB34214DF2D3
:102E40001D50FDF7B2FB02214DF21E50FDF7ADFB08
:102E500067214DF21F50FDF7A8FB02214DF22050D3
:102E6000FDF7A3FB84214DF22150FDF79EFB0221CB
:102E70004DF22250FDF799FBA4214DF22350FDF7AE
:102E800094FB02214DF22450FDF78FFBB7214DF248
:102E90002550FDF78AFB02214DF22650FDF785FBF8
:102EA000CF214DF22750FDF780FB02214DF2285033
:102EB000FDF77BFBDE214DF22950FDF776FB022169
:102EC0004DF22A50FDF771FBF2214DF22B50FDF728
:102ED0006CFB02214DF22C50FDF767FBFE214DF2F9
:102EE0002D50FDF762FB03214DF22E50FDF75DFBE7
:102EF00010214DF22F50FDF758FB03214DF23050B9
:102F0000FDF753FB33214DF23150FDF74EFB03210A
:102F10004DF23250FDF749FB6D214DF23350FDF774
:102F200044FB00214FF45640FDF73FFB33214DF2A7
:102F30000160FDF73AFB00214DF20260FDF735FB21
:102F400034214DF20360FDF730FB00214DF20460A7
:102F5000FDF72BFB3A214DF20560FDF726FB002122
:102F60004DF20660FDF721FB4A214DF20760FDF7A7
:102F70001CFB00214DF20860FDF717FB5C214DF2B0
:102F80000960FDF712FB00214DF20A60FDF70DFB11
:102F900081214DF20B60FDF708FB00214DF20C6022
:102FA000FDF703FBA6214DF20D60FDF7FEFA0021AF
:102FB0004DF20E60FDF7F9FAE5214DF20F60FDF7D5
:102FC000F4FA01214DF21060FDF7EFFA13214DF2F2
:102FD0001160FDF7EAFA01214DF21260FDF7E5FA02
:102FE00054214DF21360FDF7E0FA01214DF2146017
:102FF000FDF7DBFA82214DF21560FDF7D6FA0121CB
:103000004DF21660FDF7D1FACA214DF21760FDF7B7
:10301000CCFA02214DF21860FDF7C7FA00214DF2FB
:103020001960FDF7C2FA02214DF21A60FDF7BDFAF0
:1030300001214DF21B60FDF7B8FA02214DF21C6030
:10304000FDF7B3FA34214DF21D60FDF7AEFA02210F
:103050004DF21E60FDF7A9FA67214DF21F60FDF7E2
:10306000A4FA02214DF22060FDF79FFA84214DF26F
:103070002160FDF79AFA02214DF22260FDF795FAE0
:10308000A4214DF22360FDF790FA02214DF2246055
:10309000FDF78BFAB7214DF22560FDF786FA022184
:1030A0004DF22660FDF781FACF214DF22760FDF742
:1030B0007CFA02214DF22860FDF777FADE214DF20D
:1030C0002960FDF772FA02214DF22A60FDF76DFAD0
:1030D000F2214DF22B60FDF768FA02214DF22C60CF
:1030E000FDF763FAFE214DF22D60FDF75EFA032134
:1030F0004DF22E60FDF759FA10214DF22F60FDF7C9
:1031000054FA03214DF23060FDF74FFA33214DF2AE
:103110003160FDF74AFA03214DF23260FDF745FABE
:103120006D214DF23360FDF740FA55211846FDF749
:103130003CFAAA212046FDF738FA52212846FDF72D
:1031400034FA08213046FDF730FA00214046FDF7F9
:103150002CFACC215046FDF728FA00215846FDF7FD
:1031600024FA05214846FDF720FA70214FF4374034
:10317000FDF71BFA70214BF20170FDF716FA0121E1
:103180004FF43840FDF711FA03214BF60100FDF72B
:103190000CFA03214BF60200FDF707FA03214BF668
:1031A0000300FDF702FA02214FF43C40FDF7FDF960
:1031B00000214BF60140FDF7F8F900214BF60240E3
:1031C000FDF7F3F9D0214FF44940FDF7EEF9022164
:1031D0004CF60110FDF7E9F950214CF60210FDF70D
:1031E000E4F950214CF60310FDF7DFF950214CF6BD
:1031F0000410FDF7DAF900214FF45450FDF7D5F92A
:1032000055214FF46850FDF7D0F94FF48850FDF781
:10321000C1F9782001F03BFE4FF42450FDF7BAF9D4
:1032200001F004B9A0F513414FF4E06840F202291F
:1032300040F23F154FF4274B253926D04FF4017A41
:1032400040F20776C91E7CD04FF4887B083179D0D4
:10325000113978D0A0F5A841083975D0A0F5A8514A
:103260004FF4407B053970D0B1F520416ED0B1F5F7
:1032700080516CD0A0F50941893969D0A0F58A4107
:10328000313966D0091F65D0CAE747F6F001E5205D
:10329000FDF78BF921460120FDF787F94146022011
:1032A000FDF783F941F230010320FDF77EF900219B
:1032B0000420FDF77AF949460820FDF776F9002148
:1032C0000920FDF772F900210A20FDF76EF90021AF
:1032D0000C20FDF76AF900210D20FDF766F90021A9
:1032E0000F20FDF762F900211020FDF75EF907219C
:1032F0001120FDF75AF900211220FDF756F900219F
:103300001320FDF752F900210720FDF74EF941F295
:1033100090611020FDF749F940F227211120FDF7B7
:1033200044F99D211220FDF740F94FF4C8511320B4
:10333000FDF73BF925212920FDF737F90D212B2039
:1033400009E07EE069E10EE2E8E285E3FEE3FEE308
:10335000FEE3FEE3FEE3FDF728F907213020FDF749
:1033600024F940F203313120FDF71FF90321322007
:10337000FDF71BF940F206213520FDF716F908216B
:103380003620FDF712F940F206413720FDF70DF91E
:103390004FF441713820FDF708F907213920FDF776
:1033A00004F940F202613C20FDF7FFF808213D20BE
:1033B000FDF7FBF800215020FDF7F7F8EF21512031
:1033C000FDF7F3F800215220FDF7EFF829465320CE
:1033D000FDF7EBF859466020FDF7E7F80121612081
:1033E000FDF7E3F800216A20FDF7DFF800218020D7
:1033F000FDF7DBF800218120FDF7D7F800218220BE
:10340000FDF7D3F800218320FDF7CFF800218420B9
:10341000FDF7CBF800218520FDF7C7F8102190209B
:10342000FDF7C3F84FF4C0619220FDF7BEF840F2FB
:1034300033110720FDF7B9F822210020FDF7B5F878
:10344000EEE641F28F01EC20FDF7AFF841F23421B6
:10345000EF20FDF7AAF821460120FDF7A6F8414626
:103460000220FDF7A2F841F230010320FDF79DF89C
:1034700000210420FDF799F849460820FDF795F84A
:1034800000210920FDF791F800210A20FDF78DF8B1
:1034900001210C20FDF789F800210D20FDF785F8AA
:1034A00000210F20FDF781F800211020FDF77DF8A5
:1034B00007211120FDF779F800211220FDF775F89A
:1034C00000211320FDF771F801210720FDF76DF8A9
:1034D000322001F0F3FC41F290411020FDF765F835
:1034E00040F227211120FDF760F8322001F0E6FCC0
:1034F0008A211220FDF759F8322001F0DFFC4FF449
:10350000D0511320FDF751F806212920FDF74DF881
:103510000D212B20FDF749F8322001F0CFFC0021CE
:103520002020FDF742F800212120FDF73EF832204F
:1035300001F0C4FC00213020FDF737F840F20461AF
:103540003120FDF732F840F205313220FDF72DF839
:1035500000213520FDF729F840F609413620FDF716
:1035600024F851463720FDF720F840F20131382089
:10357000FDF71BF831463920FDF717F800213C20F4
:10358000FDF713F840F60A213D20FDF70EF8322032
:1035900001F094FC00215020FDF707F8EF215120A5
:1035A000FDF703F800215220FCF7FFFF29465320C6
:1035B000FCF7FBFF59466020FCF7F7FF0121612073
:1035C000FCF7F3FF00216A20FCF7EFFF00218020C9
:1035D000FCF7EBFF00218120FCF7E7FF00218220B0
:1035E000FCF7E3FF00218320FCF7DFFF00218420AC
:1035F000FCF7DBFF00218520FCF7D7FF102190208E
:10360000FCF7D3FF4FF4C0619220FCF7CEFF40F2ED
:1036100033110720FCF7C9FF02E600210846FCF73A
:10362000C4FF21460120FCF7C0FF41460220FCF701
:10363000BCFF41F230010320FCF7B7FF002104205A
:10364000FCF7B3FF49460820FCF7AFFF0021092033
:10365000FCF7ABFF00210A20FCF7A7FF01210C209B
:10366000FCF7A3FF00210D20FCF79FFF00210F2096
:10367000FCF79BFF322001F021FC40F201110720F2
:10368000FCF793FF322001F019FC4FF48651102013
:10369000FCF78BFF07211120FCF787FF594612200A
:1036A000FCF783FF4FF430611320FCF77EFF00210D
:1036B0002920FCF77AFF44F210012B20FCF775FF5C
:1036C00000215020FCF771FFEF215120FCF76DFF26
:1036D00000215220FCF769FF29465320FCF765FFC3
:1036E0004FF41C516020FCF760FF01216120FCF7C2
:1036F0005CFF00216A20FCF758FF00218020FCF7C6
:1037000054FF00218120FCF750FF00218220FCF7AC
:103710004CFF00218320FCF748FF00218420FCF7A8
:1037200044FF00218520FCF740FF10219020FCF78A
:103730003CFF00219220FCF738FF01219320FCF789
:1037400034FF59469520FCF730FF00219720FCF705
:103750002CFF00219820FCF728FF40F2731107206E
:10376000FCF723FF5CE541F21401E720FCF71DFFA5
:1037700021460120FCF719FF4FF400710220FCF7ED
:1037800014FF41F238010320FCF70FFF49460820DF
:10379000FCF70BFF00210920FCF707FF00210A209E
:1037A000FCF703FF00210C20FCF7FFFE00210D2099
:1037B000FCF7FBFE00210F20FCF7F7FE0021102094
:1037C000FCF7F3FE07211120FCF7EFFE0021122089
:1037D000FCF7EBFE00211320FCF7E7FEC82001F008
:1037E0006DFB41F290611020FCF7DFFE40F22721D3
:1037F0001120FCF7DAFE322001F060FB0C211220D0
:10380000FCF7D3FE322001F059FB4FF40061132086
:10381000FCF7CBFE11212920FCF7C7FE0B212B2042
:10382000FCF7C3FE322001F049FB00212020FCF709
:10383000BCFE29462120FCF7B8FE00213020FCF711
:10384000B4FE4FF4837319463120FCF7AEFE00211D
:103850003220FCF7AAFE51463520FCF7A6FE41F2C5
:103860000A613620FCF7A1FE31463720FCF79DFEA9
:1038700019463820FCF799FE31463920FCF795FEB1
:1038800040F202413C20FCF790FE40F60F413D2003
:10389000FCF78BFE00215020FCF787FEEF21512022
:1038A000FCF783FE00215220FCF77FFE29465320BF
:1038B000FCF77BFE4FF41C516020FCF776FE0121E3
:1038C0006120FCF772FE00216A20FCF76EFE0021E9
:1038D0008020FCF76AFE00218120FCF766FE0021B3
:1038E0008220FCF762FE00218320FCF75EFE0021AF
:1038F0008420FCF75AFE00218520FCF756FE10219B
:103900009020FCF752FE4FF4C0619220FCF74DFE70
:1039100040F233110720FCF748FE81E421460120E4
:10392000FCF743FE41460220FCF73FFE41F2300126
:103930000320FCF73AFE00210420FCF736FE40F29B
:1039400007210820FCF731FE00210920FCF72DFE9D
:1039500000210A20FCF729FE00210C20FCF725FE9F
:1039600000210D20FCF721FE00210F20FCF71DFE99
:10397000142001F0A3FA41F2B0611020FCF715FE0B
:1039800001211120FCF711FE01211720FCF70DFE8B
:103990004FF49C711220FCF708FE4FF400611320D5
:1039A000FCF703FE09212920FCF7FFFD09212A204D
:1039B000FCF7FBFD0021A420FCF7F7FD00215020BF
:1039C000FCF7F3FDEF215120FCF7EFFD0021522021
:1039D000FCF7EBFD29465320FCF7E7FD4FF41C51A3
:1039E0006020FCF7E2FD01216120FCF7DEFD0021F3
:1039F0006A20FCF7DAFD00218020FCF7D6FD0021CB
:103A00008120FCF7D2FD00218220FCF7CEFD0021B1
:103A10008320FCF7CAFD00218420FCF7C6FD0021AD
:103A20008520FCF7C2FD13219020FCF7BEFD00218C
:103A30009220FCF7BAFD03219320FCF7B6FD59460E
:103A40009520FCF7B2FD40F273110720FCF7ADFDA5
:103A5000322001F033FA17E400210720FCF7A5FD1E
:103A6000322001F02BFA4FF48E711220FCF79DFDED
:103A70000121A420FCF799FD0F210820FCF795FDFA
:103A800008210A20FCF791FD08210D20FCF78DFD8F
:103A900031463020FCF789FD07213120FCF785FDF8
:103AA00040F203613220FCF780FD41463320FCF7F1
:103AB0007CFD49463420FCF778FD02213520FCF7D7
:103AC00074FD41F60F713620FCF76FFD314637204B
:103AD000FCF76BFD00213820FCF767FD0021392041
:103AE000FCF763FD31463A20FCF75FFD00213B20E7
:103AF000FCF75BFD07213C20FCF757FD00213D2032
:103B0000FCF753FD322001F0D9F901210720FCF721
:103B10004CFD01211720FCF748FD322001F0CEF9C1
:103B20004FF4BD511020FCF740FD40F21721112049
:103B3000FCF73BFD4FF48F711220FCF736FD4FF47C
:103B400070611320FCF731FD002104E094E090E166
:103B500059E20CE3C0E32A20FCF727FD0A212920C3
:103B6000FCF723FD4FF49F711220FCF71EFD00218E
:103B70005020FCF71AFDEF215120FCF716FD002123
:103B80005220FCF712FD29465320FCF70EFD4FF49E
:103B90001C516020FCF709FD01216120FCF705FDA7
:103BA00000216A20FCF701FD00218020FCF7FDFCCC
:103BB00000218120FCF7F9FC00218220FCF7F5FCB4
:103BC00000218320FCF7F1FC00218420FCF7EDFCB0
:103BD00000218520FCF7E9FC13219020FCF7E5FC8F
:103BE00059469220FCF7E1FC05219320FCF7DDFC0F
:103BF00000219520FCF7D9FC00219720FCF7D5FC8B
:103C000000219820FCF7D1FC21460120FCF7CDFCD7
:103C100041460220FCF7C9FC41F238010320FCF7C1
:103C2000C4FC00210420FCF7C0FC00210C20FCF7A0
:103C3000BCFC00210F20FCF7B8FC00212020FCF781
:103C4000B4FC00212120FCF7B0FC21210720FCF767
:103C5000ACFC142001F032F961210720FCF7A5FC2F
:103C6000142001F02BF940F273110720FCF79DFCA2
:103C7000142001F023F9D9E300210846FCF795FC54
:103C800000210846FCF791FC00210846FCF78DFC5A
:103C900000210846FCF789FC0121A420FCF785FCE3
:103CA000142001F00BF94FF41C5631466020FCF74C
:103CB0007CFC49460820FCF778FC4FF40571302065
:103CC000FCF773FC43F215713120FCF76EFC40F2F7
:103CD00004613220FCF769FC40F616613320FCF7E2
:103CE00064FC42F211213420FCF75FFC4FF4A85130
:103CF0003520FCF75AFC48F207513620FCF755FCFA
:103D000041F207413720FCF750FC41F203413820D3
:103D1000FCF74BFC20213920FCF747FC1A219020AE
:103D2000FCF743FC00211020FCF73FFC0721112089
:103D3000FCF73BFC00211220FCF737FC002113208C
:103D4000FCF733FC142001F0B9F84FF4E6611020C1
:103D5000FCF72BFC40F237111120FCF726FC142055
:103D600001F0ACF84FF4DC711220FCF71EFC1420BB
:103D700001F0A4F84FF470611320FCF716FC8021C9
:103D80002A20FCF712FC48212920FCF70EFC142005
:103D900001F094F821460120FCF707FC414602207F
:103DA000FCF703FC41F238010320FCF7FEFB494617
:103DB0000820FCF7FAFB00210A20FCF7F6FB0021A3
:103DC0000C20FCF7F2FB00210D20FCF7EEFB30216C
:103DD0000E20FCF7EAFB00215020FCF7E6FBEF2168
:103DE0005120FCF7E2FB00215220FCF7DEFB2946C4
:103DF0005320FCF7DAFB31466020FCF7D6FB0121AB
:103E00006120FCF7D2FB00216A20FCF7CEFB1121D8
:103E10009020FCF7CAFB4FF4C0619220FCF7C5FB71
:103E200040F202419320FCF7C0FB02219420FCF7F2
:103E3000BCFB142001F042F801210720FCF7B5FB80
:103E4000142001F03BF861210720FCF7AEFB40F2A3
:103E500073110720FCF7A9FB00212020FCF7A5FB2C
:103E600000212120FCF7A1FB22210020FCF79DFB73
:103E7000DCE200210846FCF798FB00210846FCF72D
:103E800094FB142001F01AF800210846FCF78DFB82
:103E900000210846FCF789FB00210846FCF785FB5A
:103EA00000210846FCF781FB0121A420FCF77DFBE3
:103EB000142001F003F84FF41C516020FCF775FB4F
:103EC00040F606010820FCF770FB40F20373194628
:103ED0003020FCF76AFB01213120FCF766FB04214E
:103EE0003220FCF762FB4FF481713320FCF75DFB5D
:103EF00059463420FCF759FB40F203113520FCF7FA
:103F000054FB1F213620FCF750FB19463720FCF7E5
:103F10004CFB01213820FCF748FB04213920FCF739
:103F200044FB15219020FCF740FB4FF482611020E8
:103F3000FCF73BFB40F247211120FCF736FB4FF426
:103F4000DE711220FCF731FB4FF460611320FCF7A7
:103F50002CFB782000F0B2FF21460120FCF725FB66
:103F60004FF400710220FCF720FB41F230010320E6
:103F7000FCF71BFB08210A20FCF717FB00210C2093
:103F8000FCF713FB20210E20FCF70FFB00210F2074
:103F9000FCF70BFB00212020FCF707FB0021212070
:103FA000FCF703FB3D212A20FCF7FFFA142000F068
:103FB00085FF2D212920FCF7F8FA00215020FCF77D
:103FC000F4FA4DF2EF015120FCF7EFFA00215220F4
:103FD000FCF7EBFA29465320FCF7E7FA00216120B1
:103FE000FCF7E3FA00216A20FCF7DFFA5946922039
:103FF000FCF7DBFA05219320FCF7D7FA21460720CE
:10400000FCF7D3FA12E201210020FCF7CEFA4AF6BF
:10401000A4010320FCF7C9FA00210C20FCF7C5FA23
:1040200040F60C010D20FCF7C0FA4FF42C510E2085
:10403000FCF7BBFAB0211E20FCF7B7FA42F63F317D
:104040000120FCF7B2FA4FF4C0610220FCF7ADFA90
:1040500000211020FCF7A9FA46F278011120FCF7A4
:10406000A4FA00210520FCF7A0FA00210620FCF7A5
:104070009CFA4EF61C711620FCF797FA03211720C4
:10408000FCF793FA40F233210720FCF78EFA002167
:104090000B20FCF78AFA00210F20FCF786FA00219A
:1040A0004120FCF782FA00214220FCF77EFA002131
:1040B0004820FCF77AFA29464920FCF776FA0021D5
:1040C0004A20FCF772FA00214B20FCF76EFA4FF4FD
:1040D0006F414420FCF769FA00214520FCF765FA9E
:1040E00029464620FCF761FA31463020FCF75DFA9C
:1040F00051463120FCF759FA51463220FCF755FA67
:1041000040F2025319463320FCF74FFA40F20751B0
:104110003420FCF74AFA51463520FCF746FA51465E
:104120003620FCF742FA19463720FCF73EFA40F2F7
:10413000023319463A20FCF738FA19463B20FCF7BF
:1041400034FA00212320FCF730FA00212420FCF768
:104150002CFA4FF400412520FCF727FA00214F20CC
:10416000FCF723FA00214E20FCF71FFA5EE1012143
:104170000020FCF71AFA0A2000F0A0FE41F22861A4
:104180001020FCF712FA0E211220FCF70EFA40F66E
:1041900039211320FCF709FA0A2000F08FFE402194
:1041A0001120FCF702FA50211520FCF7FEF90A2035
:1041B00000F084FE1E211220FCF7F7F90A2000F01F
:1041C0007DFE4FF4B1511020FCF7EFF942F6392192
:1041D0001320FCF7EAF90A2000F070FE21460120C6
:1041E000FCF7E3F959460220FCF7DFF941F2380108
:1041F0000320FCF7DAF949460820FCF7D6F9082134
:104200000A20FCF7D2F900213020FCF7CEF940F269
:1042100002413120FCF7C9F94FF483713220FCF7D9
:10422000C4F940F203513320FCF7BFF94FF4827117
:104230003420FCF7BAF940F201313520FCF7B5F92A
:1042400031463620FCF7B1F940F205313720FCF752
:10425000ACF94FF402713820FCF7A7F940F60B7166
:104260003920FCF7A2F902214120FCF79EF94FF416
:104270001C516020FCF799F901216120FCF795F9A8
:104280004FF404719020FCF790F94FF4857192205F
:10429000FCF78BF904219320FCF787F92146A02035
:1042A000FCF783F901210720FCF77FF92121072082
:1042B000FCF77BF923210720FCF777F9332107204E
:1042C000FCF773F940F233110720FCF76EF9002177
:1042D000A020FCF76AF9A9E030211520FCF765F968
:1042E00010219A20FCF761F920211120FCF75DF9DB
:1042F00043F228411020FCF758F902211220FCF764
:1043000054F941F238011320FCF74FF9282000F04E
:10431000D5FD12210846FCF748F9282000F0CEFD13
:1043200043F220411020FCF740F943F238011320FA
:10433000FCF73BF9462000F0C1FD00213020FCF7DE
:1043400034F940F202413120FCF72FF940F20731F5
:104350003220FCF72AF94FF441713320FCF725F99C
:1043600004213420FCF721F940F201413520FCF70B
:104370001CF931463620FCF718F940F20531372098
:10438000FCF713F94FF4C26319463820FCF70DF916
:1043900019463920FCF709F921460120FCF705F9F7
:1043A00059460220FCF701F941F230010320FCF7E5
:1043B000FCF840F608010820FCF7F7F808210A206D
:1043C000FCF7F3F84FF41C516020FCF7EEF80121E4
:1043D0006120FCF7EAF84FF49F719020FCF7E5F8B4
:1043E00021469220FCF7E1F821469320FCF7DDF806
:1043F0004FF44051A020FCF7D8F81021A320FCF77F
:10440000D4F801210720FCF7D0F821210720FCF780
:10441000CCF823210720FCF7C8F833210720FCF74C
:10442000C4F840F233110720FCF7BFF80020FCF776
:1044300083FB0121FA4801F09DF93846FCF7E5FCC1
:104440001FB0BDE8F08F2DE9F8438046DDF82090DD
:104450001F46F44CA088A0F5D043043B02D1A079BC
:10446000012805D0A2EB0800401C86B20D462BE0C7
:104470000D462088811A491E89B23A46A0EB0800F1
:10448000401E83B20020A0712A2666812B27A781B7
:104490002846CDF80090FFF7D6FF0120A071678174
:1044A000A681BDE8F88329464046FCF7A2F8FCF750
:1044B0008AF8002404E04846FCF76FF8641CA4B2B4
:1044C000B442F8D36D1CADB2BD42ECD9E9E72DE999
:1044D000F0478246DDF820800F46A2EB0A00401C20
:1044E00086B2D81B401C85B20024DFF83C9314E050
:1044F000381981B25046FCF77CF8FCF764F80022CA
:1045000007E004FB052038F81000A9F80000521C51
:1045100092B2B242F5D3641CA4B2AC42E8D3BDE877
:10452000F0872DE9FE4F00250026171AA3EB01089E
:1045300081468A46681E002F03DD4FF0010101917C
:1045400007E003D14FF00001019102E00190C7F1B3
:104550000007B8F1000F03DD4FF00100009007E005
:1045600003D14FF00000009002E00090C8F1000875
:10457000474501DD3C4600E044464FF0000B601C1F
:10458000029015E01FFA8AF11FFA89F0FCF753FA3E
:104590003D444644A54202DD2D1B01988144A642BC
:1045A00002DD361B009882440BF1010B1FFA8BFBD6
:1045B00002988345E6DDBDE8FE8FF0B505460E4660
:1045C00014461F463346224631462846FFF7A9FFC8
:1045D0003B462A4631462846FFF7A3FF3B46224684
:1045E00039462846FFF79DFF3B4622463146204686
:1045F000BDE8F04095E72DE9FC4F074688460024CA
:1046000015460320A0EB42064BE0A8EB050081B263
:1046100007EB040A01901FFA8AF0FCF70CFAA8EBEA
:10462000040081B207EB050900901FFA89F0FCF73E
:1046300002FA08EB040B1FFA8BF11FFA89F0FCF762
:10464000FAF908EB05091FFA89F11FFA8AF0FCF75D
:10465000F2F91FFA89F1A7EB04091FFA89F0FCF7B8
:10466000EAF9A7EB050A1FFA8BF11FFA8AF0FCF7AB
:10467000E2F9019881B21FFA89F0FCF7DCF90098A1
:1046800081B21FFA8AF0FCF7D6F9641C002E03DA17
:1046900006EB8406B61D04E0601B06EB80060A36B6
:1046A0006D1EAC42B1DDBDE8FC8F2DE9FF4F054624
:1046B0000D980C461E46A1465C49B1F800A0203A70
:1046C000D1B20291002802D04FF000088BE04FF0E9
:1046D000000846E00C2E0DD05548029900EB011061
:1046E00010F808704FF0000B38060CD54F48A0F8B2
:1046F00000A00BE0029800EB40014E4800EB810067
:1047000010F80870EEE749484188018021462846A4
:10471000FCF791F97806070E641CA4B241480088A2
:10472000A84204D84148A0F800A0BDE8FF8FA4EB40
:104730000900B0420AD14C466D1CADB23948008820
:10474000A8420AD83948A0F800A0EEE70BF1010B07
:104750000BF0FF0BBBF1080FC6D308F1010808F0FE
:10476000FF08B045B6D340E00C2E19D0304802996E
:1047700000EB011010F808704FF0000B380603D55D
:1047800021462846FCF757F97806070E641CA4B2A8
:1047900024484088A8420CD82448A0F800A0C4E7C8
:1047A000029800EB4001234800EB810010F80870EC
:1047B000E2E7A4EB0900B0420AD14C466D1CADB251
:1047C00018480088A8420AD81848A0F800A0ACE70A
:1047D0000BF1010B0BF0FF0BBBF1080FCED308F16F
:1047E000010808F0FF08B045BED31048A0F800A0AB
:1047F0009BE70346012000E05843491EC9B2FBD2A3
:1048000070472DE9FF4F81B08046DDF838B0924601
:104810001D4600260024A1464FEA5B072CE000005D
:10482000000C0140540000200008006C1A00002019
:104830004C770008D8720008281B401EC1B20A201D
:10484000FFF7D7FFBAFBF0F00A21B0FBF1F201FB52
:10485000120026B9691E8C4201DA88B10126303077
:10486000C2B207FB048080B25B46CDF8009002998B
:10487000FFF71BFF641CE4B2AC42DDD305B0E0E5FA
:1048800007FB048080B25B462022CDF8009002999D
:10489000FFF70BFFEEE72DE9FF4F81B08046DDF813
:1048A0003CA093461F464FF0000900240E980AF0E2
:1048B0000105460821E0381B401EC1B20A20FFF75F
:1048C00098FFBBFBF0F00A21B0FBF1F201FB1200F4
:1048D000B9F1000F05D1791E8C4202DA80B14FF098
:1048E00001093030C2B206FB048080B200950E9BF5
:1048F0000299FFF7DAFE641CE4B2BC42DBD3BDE7E9
:104900005FEA0A6009D506FB048080B20095302278
:104910000E9B0299FFF7C9FEEDE706FB048080B20B
:10492000009520220E9B0299FFF7BFFEE3E72DE9D9
:10493000F84F0446DDE90A760D4604F0FF08101929
:104940001FFA80F958191FFA80FA4FF0000B11E096
:104950004C4502D34446E81985B255450FD23B4633
:1049600029462046CDF800B0FFF79FFE04EB570024
:1049700084B2761C3278A2F120005E28E8D9BDE826
:10498000F88F00007FB504460D460121084601F06E
:1049900091F8ADF80840ADF804500024ADF80A4095
:1049A000ADF806404FF0804501A9284601F084FB90
:1049B00001221146284601F06AFE1C218DF80010E4
:1049C0008DF8014002218DF8021001218DF80310AD
:1049D000684600F042FB0121284601F03EFE7FBD03
:1049E0007FB504460D460121022001F063F8ADF8C1
:1049F0000840ADF804500024ADF80A40ADF8064078
:104A00000D4D01A9284601F057FB01221146284609
:104A100001F03DFE1D218DF800108DF801400121AF
:104A20008DF802108DF80310684600F016FB012186
:104A3000284601F012FE7FBD00040040F022002154
:104A40004FF4A0730846FFF7B8BDC04948707047DF
:104A50002DE9F84FDFF8F4B2DFF8F4824FF00109E6
:104A60000BF1040B52E00020ADF80000ADF802009D
:104A700000270026B8F80000B8F80040012000F038
:104A80001DFA761CF6B2092EF4D30026B8F8000001
:104A9000B8F80050012000F011FA761CF6B2092E89
:104AA000F4D3AC4206D3BDF8000009FA07F108437D
:104AB000ADF800007F1CFFB2092FDAD300270026D3
:104AC000B8F80000B8F80040012000F0F7F9761CB3
:104AD000F6B2092EF4D30026CA46B8F80000B8F89A
:104AE0000050012000F0EAF9761CF6B2092EF4D34A
:104AF000AC4207D3BDF802000AFA07FA40EA0A00FE
:104B0000ADF802007F1CFFB2092FD8D3BDF800100A
:104B1000F029A8D20029A6D0BDF80200B0F5A07FE8
:104B2000A1D200289FD0BBF8002091429BD0BBF8B7
:104B30000210884297D00098BDE8F88F2DE9FC411B
:104B4000FFF786FF06460190804FBDF80640BDF88E
:104B500004503878211828448BB282B22146284666
:104B6000FFF72BFD002000903878211828448BB2E5
:104B700082B221462846FFF766FC3046BDE8FC813C
:104B800010B5FFF7DBFF7149486072487822028058
:104B9000A023438082800978C1F1A001C180042054
:104BA000FFF753FFBDE8104048E7F8B50024674F12
:104BB0001AE0684E3A7806EB84056988881883B253
:104BC00036F82400024492B2FFF7F7FC0020009070
:104BD00069883A78881883B236F82400024492B281
:104BE000FFF731FC641CA4B278888442E1D3574CAF
:104BF0003A7808346188881883B22088024492B2D7
:104C0000FFF7DBFC4FF6FF70009061883A78881858
:104C100083B22088024492B2FFF715FCF8BD00B5BC
:104C200085B04DA0D0E900128068CDE90212049051
:104C300002A80F21CDE900104FF4FA735A00642145
:104C40005A20FFF774FE05B000BDF8B501243F4EB1
:104C5000404D0EE0288835F82410884207D105EB36
:104C6000840168884988884201D1FFF7D8FF641C15
:104C7000A4B270888442EDD3288830B1F02804D0E3
:104C8000688810B1B0F5A07F01D1FFF7C8FF2F48A9
:104C90002988001D0288914215D169884088814287
:104CA00011D17088401C80B2708028490C31401EA0
:104CB0000A8825F8202005EB800049884180FFF70D
:104CC0003DFF00907060F8BD10B5204C214A60880F
:104CD000401E02EB80010968A16080B207E002EB90
:104CE0008001401E02EB80031B680B6080B200282D
:104CF000F5D1164861780078012906D0022908D03C
:104D000003290AD004290FD10BE011880844108030
:104D10000AE01188081A108006E05188081A5080AD
:104D200002E051880844508008480830011D02887C
:104D30000A8040884880FFF788FF6188BDE81040FE
:104D4000044832E701494870704700001E00002007
:104D5000340000206200002067616D655F6F76653A
:104D60007200000008B50121084600F08DFE012107
:104D70004FF4047000F093FE0220ADF80000002014
:104D80008DF803006946324800F083FC08BD70B519
:104D900090B0304E304602F081F82F4805902F48F1
:104DA0000690002407940125089509940A94280286
:104DB0000B9080000C9020200D9000020E900F941C
:104DC00005A9304602F0E1F80121304602F007F96A
:104DD00000948DF804408DF805504FF46020029047
:104DE00003948DF810501C4C69464C3C204601F051
:104DF000BDFE4FF4404000F0D5FD052301220B21FC
:104E0000204601F03DFF0121204601F0E3FE012193
:104E1000204601F0D3FE204601F0F3FE204601F0CB
:104E2000F5FE0028FAD1204601F0F7FE204601F0F9
:104E3000F9FE0028FAD10121204601F0FAFE10B057
:104E400070BD10B5FFF78EFFBDE810409FE7000072
:104E500000100140080002404C24014034000020B2
:104E600010B56FF0040000F03BF9204820490068BD
:104E7000B0FBF1F01F49C0B2087000EB4002C2EB7A
:104E8000C0104FF6FF7202EAC000488010BD1949F9
:104E9000097848434FF0E021486100238B6108699D
:104EA00040F0010008610869C20701D0C003FAD5CB
:104EB000086920F0010008618B6170470D4949883D
:104EC00048434FF0E021486100238B61086940F0BE
:104ED000010008610869C20701D0C003FAD508695A
:104EE00020F0010008618B61704700000400002081
:104EF00000127A0036000020704741490A885206A5
:104F0000FCD53F4AC1B2121D1180704770B586B002
:104F10000546012144F2040000F0C1FD4FF4007089
:104F2000ADF8140003248DF8164018218DF81710E1
:104F3000344E05A9304600F0ACFB3115ADF8141025
:104F400004218DF8171005A9304600F0A2FB25209A
:104F50008DF800008DF801408DF8024001208DF899
:104F60000300684600F079F801950020ADF80800CC
:104F7000ADF80A00ADF80C00ADF810000C20ADF84B
:104F80000E001F4C01A9204600F028FE012240F22D
:104F90002551204600F0A9FE0121204600F099FE8F
:104FA00006B070BD70B5164C40F22551204600F099
:104FB00069FF00280ED0204600F0F0FEC1B2124A70
:104FC0001088030406D444044FF0000307D50A29CF
:104FD00001D0138070BD40F40040108070BD0D29D9
:104FE0000AD00A4DC0F30D042955401C80B2108030
:104FF000C728F3D9138070BD40F48040108070BD85
:1050000000380140000801403A000020E20C002076
:105010000948804709480047FEE7FEE7FEE7FEE74C
:10502000FEE7FEE7FEE7FEE7FEE7FEE70448054988
:10503000054A064B7047000079030008310100085B
:10504000100E00201014002010100020101000205E
:105050002A4908432A490860704770B50F23C2786F
:1050600001260178002A1ED0254A126802F4E06267
:10507000C2F5E062120AC2F10404D3404578A540AB
:1050800082781A402A43120101F1E02181F80024BC
:10509000007800F01F018E404009800000F1E02000
:1050A000C0F8006170BD01F01F0086404809800013
:1050B00000F1E020C0F8806170BD124A1140014348
:1050C0000F48001F016070470D4A121D002903D0D0
:1050D0001168014311607047116881431160704786
:1050E0004FF0E021042804D0086920F00400086192
:1050F0007047086940F00400086170470000FA0535
:105100000CED00E080FFFF1F8100A1F1C0410028ED
:105110000CD043F2D2020A60401C8000A0F1C040D3
:105120006FF070420260C1F8042170474FF02043D5
:1051300043F2DB021A60EFE710B5182440234FF06A
:1051400020414FF0FC32102805D041F8804F4B60D1
:105150008A60CA6010BD0C664B668A66CA6610BD5E
:10516000F74818210160002141604FF0FC31816057
:10517000C1600161704710B5D0E901121143D0E957
:1051800003231A4311434269114382691143C269DF
:105190001143026A1143426A1143826A1143C26A8F
:1051A0001143026B114302689200A2F1C0421160E8
:1051B0008168082907D101688900A1F1C0410A6806
:1051C00042F040020A60416BD1E9002342EA031237
:1051D0008B688C891B0243EA04431A430B8A42EA18
:1051E00003520B7D896942EA03620A430168491C44
:1051F0008900A1F1C0410A60C16AB1F5804F08D0B1
:1052000000686FF070418000A0F1C040C0F8041148
:1052100010BD816BD1E9002342EA03128B680C8A2E
:105220001B0243EA04531A430B7D896942EA036275
:1052300000680A438000A0F1C040C0F8042110BDFE
:1052400030B5D0E901121143D0E903231A431143C9
:10525000426941EA4221826941EA423141F008044F
:10526000C169D1E9002342EA03220B89097B1B04AF
:1052700043EA01610A43016AD1E9003543EA0523A3
:105280000D89097B2D0445EA01610B4301684FF04C
:105290002040102904D040F8804F8260C36030BDA8
:1052A00004668266C36630BD10B5D0E9001241EADB
:1052B00042218268102343EA42321143A04A11601E
:1052C000C168D1E9003443EA04230C89097B240432
:1052D00044EA01610B4393600169D1E9003443EA78
:1052E00004230C89097B240444EA01610B43D36045
:1052F0004069D0E9001341EA03210389007B1B04C4
:1053000043EA00600143116110BD10B50021016046
:10531000022242608160C160016141618161C161BD
:105320000162D202426252008262C1620163436B37
:105330000F221A60436B5A60446BFF23A360446BD7
:10534000E260446B2261446B6261446BA161846BD7
:105350002260846B6260846BA360836BDA60836B12
:105360001A61836B5A61806B816110BD10210160ED
:10537000002141608160C160016141618161C26958
:10538000FC211160C2695160C2699160C269D1603B
:10539000026A1160026A5160026A9160006AC1602B
:1053A00070470021016041608160C268FC2111608A
:1053B000C2685160C2689160C268D16002691160C0
:1053C00002695160026991600269D16042691160AD
:1053D00042695160426991604069C16070478000D4
:1053E000A0F1C040002904D0016841F00101016032
:1053F00070470168534A1140016070474FF02042E6
:1054000000290CD0102805D052F8800F40F004007D
:1054100010607047106E40F00400106670474949F4
:10542000C91E102804D052F8800F08401060704741
:10543000106E0840106670474FF02041002805D0DC
:1054400051F8A00F40F004000860704751F8A00F19
:105450003C4AD21E1040086070474FF0204200299D
:105460000CD0102805D052F8800F40F0400010609A
:105470007047106E40F040001066704731493F3968
:10548000102804D052F8800F084010607047106E4A
:105490000840106670474FF02041102802D0D1F824
:1054A00094007047486F704710B54FF480744FF008
:1054B0002043002A11D0102806D0A04208D153F86A
:1054C000840F0843186010BD586E0843586610BD1D
:1054D00053F8A40F0843186010BD102806D0A0424E
:1054E00008D153F8840F8843186010BD586E884364
:1054F000586610BD53F8A40F8843186010BD0346CA
:1055000000204FF02042102B08D0B3F5807F07D049
:10551000D2F8A4200A4200D001207047526EF9E769
:10552000D2F88420F6E74FF0204210280CD0B0F5D6
:10553000807F0DD052F8A40F8843106070470000A0
:10554000A00000A0FEFF0F00506E88435066F5E7F4
:1055500052F8840F88431060F0E7034600204FF0B4
:105560002042102B0ED0B3F5807F0DD0D2F8A420AE
:1055700002EA010302EAD101002BDFD00029DDD0CD
:105580000120DBE7526EF3E7D2F88420F0E74FF01A
:105590002042102808D0B0F5807F0AD052F8A40F1E
:1055A00020EAD1001060C9E7506E20EAD1005066B1
:1055B000C4E752F8840F20EAD1001060BEE7000073
:1055C00010B59C49884209D10121042000F07DFAE0
:1055D0000021BDE81040042000F077BA96498842C7
:1055E00009D10121082000F070FA0021BDE8104027
:1055F000082000F06ABA9149884209D1012110209F
:1056000000F063FA0021BDE81040102000F05DBA00
:105610008B49884209D10121202000F056FA00214F
:10562000BDE81040202000F050BA8649884209D1D8
:105630000121402000F049FA0021BDE8104040203F
:1056400000F043BA8049884209D10121802000F04E
:105650003CFA0021BDE81040802000F036BA7B49BA
:1056600088420AD184150121204600F02EFA2046F6
:10567000BDE81040002100F028BA10BD10B501218E
:10568000084600F022FA0021BDE81040012000F099
:105690001CBA2DE9F0410022CC7804F00F03E40697
:1056A00001D58C7823430C784FF00F0714F0FF0FCF
:1056B0004FF0010C1CD005680CFA02F40E8826404D
:1056C000A64211D1960007FA06F825EA080503FA62
:1056D00006F848EA0505CE78282E02D0482E02D0DA
:1056E00002E0446100E00461521C082AE4D3056032
:1056F0000A88FF2A1ED94568002202F108060CFA22
:1057000006F40E882640A64210D1960007FA06F845
:1057100025EA080503FA06F848EA0505CE78282E9A
:1057200000D14461CE78482E00D10461521C082A71
:10573000E3D34560BDE8F0814FF6FF71018002219F
:1057400081700421C17070470246002092680A42AD
:1057500000D001207047806880B270470246002068
:10576000D2680A4200D001207047C06880B27047FA
:105770000161704741617047002A01D001617047A3
:1057800041617047C160704741F48032826181613C
:10579000826181698069704710B52D4B1A684FF698
:1057A0008074224042EA00100843186010BD294965
:1057B000C8617047F0B5264C002801DAE36900E0C3
:1057C0006368C0F30346420D120185B2C0F301576E
:1057D0009540032F07D0C2020CD50322B240934359
:1057E00043F0706209E023F07062636823F0706335
:1057F000636002E0AB4343F0706201B12A430028CA
:1058000001DAE261F0BD6260F0BD10B58A07120FE7
:105810000F23934021F003040D4921448C689C43DD
:105820008C608B68904003438B6010BD0949DC316C
:105830000860704700080140000C01400010014062
:105840000014014000180140001C014000200140EC
:105850000000014000002042B448016841F001010D
:1058600001604168B24A114041600168B14A11408B
:105870000160016821F480210160416821F4FE018A
:1058800041604FF41F0181607047A8490A6822F403
:1058900080320A600A6822F480220A60B0F5803FF4
:1058A00007D0B0F5802F03D1086840F4A02008602D
:1058B0007047086840F48030086070470346002055
:1058C00059099A4A01290AD002290AD0516A03F0DB
:1058D0001F02012393400B4200D001207047116842
:1058E000F5E7116AF3E718B5002000904FF4A064C3
:1058F0003120FFF7E3FF0099491C00910099A14274
:1059000001D00028F4D03120FFF7D8FF08B10120E2
:1059100018BD002018BD854A116821F0F80141EA40
:10592000C000106070478449086070477F4B5A6818
:1059300022F47C1208431043586070477E49086681
:1059400070477A4A516821F0030101435160704762
:105950007648406800F00C007047744A516821F0A6
:10596000F001014351607047704A516821F4E061D1
:105970000143516070476D4A516821F4605141EA1A
:10598000C00050607047694A002903D0517A014332
:1059900051727047517A8143517270476649D831CC
:1059A00008607047614A516821F4404101435160E9
:1059B00070475E49002220310A7001F82029012831
:1059C00005D0042802D1052081F82000704701206D
:1059D00081F82000704759490860704753490A6AA6
:1059E00002430A627047554944390860704710B550
:1059F0004E4A516801F00C01514B002927D004296F
:105A000027D0082927D00360516801F0F001090967
:105A10004C4B5C5C0168E1404160546804F4E06414
:105A2000240A1C5D21FA04F48460546804F4605470
:105A3000E40A1B5DD940C160526802F44042920BF7
:105A4000404B1B1F9A5CB1FBF2F1016110BD03607A
:105A5000DAE70360D8E7516801F47011536803F482
:105A60008033022404EB914133B153689B0307D583
:105A7000354B59430160C7E7334B59430160C3E7D6
:105A80002F4B59430160BFE7284A002903D05169D1
:105A90000143516170475169814351617047234A05
:105AA000002903D091690143916170479169814355
:105AB000916170471D4A002903D0D1690143D1612A
:105AC0007047D1698143D1617047184A002903D0DA
:105AD000D1680143D1607047D1688143D16070477C
